{
  "_format": "hh-sol-artifact-1",
  "contractName": "BaultroGames",
  "sourceName": "contracts/BaultroGames.sol",
  "abi": [
    {
      "inputs": [
        {
          "internalType": "address",
          "name": "_owner",
          "type": "address"
        },
        {
          "internalType": "uint8",
          "name": "_platformFee",
          "type": "uint8"
        }
      ],
      "stateMutability": "nonpayable",
      "type": "constructor"
    },
    {
      "anonymous": false,
      "inputs": [
        {
          "indexed": true,
          "internalType": "uint64",
          "name": "matchId",
          "type": "uint64"
        },
        {
          "indexed": true,
          "internalType": "address",
          "name": "winner",
          "type": "address"
        },
        {
          "indexed": false,
          "internalType": "uint256",
          "name": "amount",
          "type": "uint256"
        },
        {
          "indexed": false,
          "internalType": "string",
          "name": "verificationHash",
          "type": "string"
        }
      ],
      "name": "MatchCompleted",
      "type": "event"
    },
    {
      "anonymous": false,
      "inputs": [
        {
          "indexed": true,
          "internalType": "uint64",
          "name": "matchId",
          "type": "uint64"
        },
        {
          "indexed": true,
          "internalType": "address",
          "name": "creator",
          "type": "address"
        },
        {
          "indexed": true,
          "internalType": "address",
          "name": "opponent",
          "type": "address"
        },
        {
          "indexed": false,
          "internalType": "string",
          "name": "gameMode",
          "type": "string"
        },
        {
          "indexed": false,
          "internalType": "uint256",
          "name": "stake",
          "type": "uint256"
        }
      ],
      "name": "MatchCreated",
      "type": "event"
    },
    {
      "anonymous": false,
      "inputs": [
        {
          "indexed": true,
          "internalType": "uint64",
          "name": "matchId",
          "type": "uint64"
        },
        {
          "indexed": true,
          "internalType": "address",
          "name": "joiner",
          "type": "address"
        },
        {
          "indexed": true,
          "internalType": "address",
          "name": "creator",
          "type": "address"
        },
        {
          "indexed": false,
          "internalType": "uint256",
          "name": "stake",
          "type": "uint256"
        }
      ],
      "name": "MatchJoined",
      "type": "event"
    },
    {
      "anonymous": false,
      "inputs": [
        {
          "indexed": true,
          "internalType": "uint64",
          "name": "raidId",
          "type": "uint64"
        },
        {
          "indexed": true,
          "internalType": "address",
          "name": "attacker",
          "type": "address"
        },
        {
          "indexed": false,
          "internalType": "uint32",
          "name": "attemptNumber",
          "type": "uint32"
        },
        {
          "indexed": false,
          "internalType": "uint256",
          "name": "fee",
          "type": "uint256"
        }
      ],
      "name": "RaidAttempted",
      "type": "event"
    },
    {
      "anonymous": false,
      "inputs": [
        {
          "indexed": true,
          "internalType": "uint64",
          "name": "raidId",
          "type": "uint64"
        },
        {
          "indexed": true,
          "internalType": "address",
          "name": "attacker",
          "type": "address"
        },
        {
          "indexed": true,
          "internalType": "address",
          "name": "creator",
          "type": "address"
        },
        {
          "indexed": false,
          "internalType": "uint256",
          "name": "creatorReward",
          "type": "uint256"
        },
        {
          "indexed": false,
          "internalType": "uint256",
          "name": "attackerReward",
          "type": "uint256"
        }
      ],
      "name": "RaidCompleted",
      "type": "event"
    },
    {
      "anonymous": false,
      "inputs": [
        {
          "indexed": true,
          "internalType": "uint64",
          "name": "raidId",
          "type": "uint64"
        },
        {
          "indexed": true,
          "internalType": "address",
          "name": "creator",
          "type": "address"
        },
        {
          "indexed": false,
          "internalType": "uint256",
          "name": "stake",
          "type": "uint256"
        },
        {
          "indexed": false,
          "internalType": "uint8",
          "name": "difficulty",
          "type": "uint8"
        }
      ],
      "name": "RaidPoolCreated",
      "type": "event"
    },
    {
      "inputs": [
        {
          "internalType": "uint64",
          "name": "raidId",
          "type": "uint64"
        }
      ],
      "name": "attemptRaid",
      "outputs": [
        {
          "internalType": "bool",
          "name": "",
          "type": "bool"
        }
      ],
      "stateMutability": "payable",
      "type": "function"
    },
    {
      "inputs": [
        {
          "internalType": "uint64",
          "name": "raidId",
          "type": "uint64"
        },
        {
          "internalType": "address",
          "name": "attackerId",
          "type": "address"
        },
        {
          "internalType": "string",
          "name": "verificationHash",
          "type": "string"
        }
      ],
      "name": "completeRaid",
      "outputs": [
        {
          "internalType": "bool",
          "name": "",
          "type": "bool"
        }
      ],
      "stateMutability": "nonpayable",
      "type": "function"
    },
    {
      "inputs": [
        {
          "internalType": "address",
          "name": "opponentId",
          "type": "address"
        },
        {
          "internalType": "string",
          "name": "gameMode",
          "type": "string"
        }
      ],
      "name": "createMatch",
      "outputs": [
        {
          "internalType": "uint64",
          "name": "",
          "type": "uint64"
        }
      ],
      "stateMutability": "payable",
      "type": "function"
    },
    {
      "inputs": [
        {
          "internalType": "uint8",
          "name": "difficulty",
          "type": "uint8"
        }
      ],
      "name": "createRaid",
      "outputs": [
        {
          "internalType": "uint64",
          "name": "",
          "type": "uint64"
        }
      ],
      "stateMutability": "payable",
      "type": "function"
    },
    {
      "inputs": [
        {
          "internalType": "uint64",
          "name": "matchId",
          "type": "uint64"
        },
        {
          "internalType": "address",
          "name": "winnerId",
          "type": "address"
        },
        {
          "internalType": "string",
          "name": "verificationHash",
          "type": "string"
        }
      ],
      "name": "endMatch",
      "outputs": [
        {
          "internalType": "bool",
          "name": "",
          "type": "bool"
        }
      ],
      "stateMutability": "nonpayable",
      "type": "function"
    },
    {
      "inputs": [
        {
          "internalType": "uint64",
          "name": "matchId",
          "type": "uint64"
        }
      ],
      "name": "getMatch",
      "outputs": [
        {
          "components": [
            {
              "internalType": "uint64",
              "name": "id",
              "type": "uint64"
            },
            {
              "internalType": "address",
              "name": "creator",
              "type": "address"
            },
            {
              "internalType": "address",
              "name": "opponent",
              "type": "address"
            },
            {
              "internalType": "string",
              "name": "gameMode",
              "type": "string"
            },
            {
              "internalType": "uint256",
              "name": "stake",
              "type": "uint256"
            },
            {
              "internalType": "address",
              "name": "winner",
              "type": "address"
            },
            {
              "internalType": "uint64",
              "name": "createdAt",
              "type": "uint64"
            },
            {
              "internalType": "uint64",
              "name": "completedAt",
              "type": "uint64"
            },
            {
              "internalType": "string",
              "name": "verificationHash",
              "type": "string"
            }
          ],
          "internalType": "struct BaultroGames.Match",
          "name": "",
          "type": "tuple"
        }
      ],
      "stateMutability": "view",
      "type": "function"
    },
    {
      "inputs": [
        {
          "internalType": "uint64",
          "name": "skip",
          "type": "uint64"
        },
        {
          "internalType": "uint64",
          "name": "limit",
          "type": "uint64"
        }
      ],
      "name": "getMatches",
      "outputs": [
        {
          "components": [
            {
              "internalType": "uint64",
              "name": "id",
              "type": "uint64"
            },
            {
              "internalType": "address",
              "name": "creator",
              "type": "address"
            },
            {
              "internalType": "address",
              "name": "opponent",
              "type": "address"
            },
            {
              "internalType": "string",
              "name": "gameMode",
              "type": "string"
            },
            {
              "internalType": "uint256",
              "name": "stake",
              "type": "uint256"
            },
            {
              "internalType": "address",
              "name": "winner",
              "type": "address"
            },
            {
              "internalType": "uint64",
              "name": "createdAt",
              "type": "uint64"
            },
            {
              "internalType": "uint64",
              "name": "completedAt",
              "type": "uint64"
            },
            {
              "internalType": "string",
              "name": "verificationHash",
              "type": "string"
            }
          ],
          "internalType": "struct BaultroGames.Match[]",
          "name": "",
          "type": "tuple[]"
        }
      ],
      "stateMutability": "view",
      "type": "function"
    },
    {
      "inputs": [
        {
          "internalType": "uint64",
          "name": "raidId",
          "type": "uint64"
        }
      ],
      "name": "getRaid",
      "outputs": [
        {
          "components": [
            {
              "internalType": "uint64",
              "name": "id",
              "type": "uint64"
            },
            {
              "internalType": "address",
              "name": "creator",
              "type": "address"
            },
            {
              "internalType": "uint256",
              "name": "stake",
              "type": "uint256"
            },
            {
              "internalType": "uint32",
              "name": "attempts",
              "type": "uint32"
            },
            {
              "internalType": "uint8",
              "name": "difficulty",
              "type": "uint8"
            },
            {
              "internalType": "bool",
              "name": "completed",
              "type": "bool"
            },
            {
              "internalType": "uint64",
              "name": "createdAt",
              "type": "uint64"
            }
          ],
          "internalType": "struct BaultroGames.RaidPool",
          "name": "",
          "type": "tuple"
        }
      ],
      "stateMutability": "view",
      "type": "function"
    },
    {
      "inputs": [
        {
          "internalType": "uint64",
          "name": "skip",
          "type": "uint64"
        },
        {
          "internalType": "uint64",
          "name": "limit",
          "type": "uint64"
        }
      ],
      "name": "getRaids",
      "outputs": [
        {
          "components": [
            {
              "internalType": "uint64",
              "name": "id",
              "type": "uint64"
            },
            {
              "internalType": "address",
              "name": "creator",
              "type": "address"
            },
            {
              "internalType": "uint256",
              "name": "stake",
              "type": "uint256"
            },
            {
              "internalType": "uint32",
              "name": "attempts",
              "type": "uint32"
            },
            {
              "internalType": "uint8",
              "name": "difficulty",
              "type": "uint8"
            },
            {
              "internalType": "bool",
              "name": "completed",
              "type": "bool"
            },
            {
              "internalType": "uint64",
              "name": "createdAt",
              "type": "uint64"
            }
          ],
          "internalType": "struct BaultroGames.RaidPool[]",
          "name": "",
          "type": "tuple[]"
        }
      ],
      "stateMutability": "view",
      "type": "function"
    },
    {
      "inputs": [
        {
          "internalType": "uint64",
          "name": "matchId",
          "type": "uint64"
        }
      ],
      "name": "joinMatch",
      "outputs": [
        {
          "internalType": "bool",
          "name": "",
          "type": "bool"
        }
      ],
      "stateMutability": "payable",
      "type": "function"
    },
    {
      "inputs": [
        {
          "internalType": "uint64",
          "name": "",
          "type": "uint64"
        }
      ],
      "name": "matches",
      "outputs": [
        {
          "internalType": "uint64",
          "name": "id",
          "type": "uint64"
        },
        {
          "internalType": "address",
          "name": "creator",
          "type": "address"
        },
        {
          "internalType": "address",
          "name": "opponent",
          "type": "address"
        },
        {
          "internalType": "string",
          "name": "gameMode",
          "type": "string"
        },
        {
          "internalType": "uint256",
          "name": "stake",
          "type": "uint256"
        },
        {
          "internalType": "address",
          "name": "winner",
          "type": "address"
        },
        {
          "internalType": "uint64",
          "name": "createdAt",
          "type": "uint64"
        },
        {
          "internalType": "uint64",
          "name": "completedAt",
          "type": "uint64"
        },
        {
          "internalType": "string",
          "name": "verificationHash",
          "type": "string"
        }
      ],
      "stateMutability": "view",
      "type": "function"
    },
    {
      "inputs": [],
      "name": "matchesCount",
      "outputs": [
        {
          "internalType": "uint64",
          "name": "",
          "type": "uint64"
        }
      ],
      "stateMutability": "view",
      "type": "function"
    },
    {
      "inputs": [],
      "name": "owner",
      "outputs": [
        {
          "internalType": "address",
          "name": "",
          "type": "address"
        }
      ],
      "stateMutability": "view",
      "type": "function"
    },
    {
      "inputs": [],
      "name": "platformFee",
      "outputs": [
        {
          "internalType": "uint8",
          "name": "",
          "type": "uint8"
        }
      ],
      "stateMutability": "view",
      "type": "function"
    },
    {
      "inputs": [
        {
          "internalType": "uint64",
          "name": "",
          "type": "uint64"
        }
      ],
      "name": "raidPools",
      "outputs": [
        {
          "internalType": "uint64",
          "name": "id",
          "type": "uint64"
        },
        {
          "internalType": "address",
          "name": "creator",
          "type": "address"
        },
        {
          "internalType": "uint256",
          "name": "stake",
          "type": "uint256"
        },
        {
          "internalType": "uint32",
          "name": "attempts",
          "type": "uint32"
        },
        {
          "internalType": "uint8",
          "name": "difficulty",
          "type": "uint8"
        },
        {
          "internalType": "bool",
          "name": "completed",
          "type": "bool"
        },
        {
          "internalType": "uint64",
          "name": "createdAt",
          "type": "uint64"
        }
      ],
      "stateMutability": "view",
      "type": "function"
    },
    {
      "inputs": [],
      "name": "raidsCount",
      "outputs": [
        {
          "internalType": "uint64",
          "name": "",
          "type": "uint64"
        }
      ],
      "stateMutability": "view",
      "type": "function"
    },
    {
      "inputs": [],
      "name": "withdraw",
      "outputs": [
        {
          "internalType": "bool",
          "name": "",
          "type": "bool"
        }
      ],
      "stateMutability": "nonpayable",
      "type": "function"
    }
  ],
  "bytecode": "0x60806040523480156200001157600080fd5b50604051620028b9380380620028b9833981016040819052620000349162000162565b6001600160a01b038216620000905760405162461bcd60e51b815260206004820152601c60248201527f4f776e657220616464726573732063616e6e6f74206265207a65726f0000000060448201526064015b60405180910390fd5b60c88160ff161115620000e65760405162461bcd60e51b815260206004820152601e60248201527f506c6174666f726d206665652063616e6e6f7420657863656564203230250000604482015260640162000087565b600080546001600160a01b0319166001600160a01b03841617905560ff81166200011257600a62000114565b805b6001805460008054600160a01b600160e01b03191690556001600160481b0319166801000000000000000060ff93909316929092026001600160401b03191691909117905550620001b19050565b600080604083850312156200017657600080fd5b82516001600160a01b03811681146200018e57600080fd5b602084015190925060ff81168114620001a657600080fd5b809150509250929050565b6126f880620001c16000396000f3fe6080604052600436106100fe5760003560e01c80635427f3fb116100955780638da5cb5b116100645780638da5cb5b1461038a578063c3e58a29146103c2578063c819f7b2146103e2578063e2639df81461040f578063e6a571091461042f57600080fd5b80635427f3fb1461024d5780635664da60146102605780636a7134561461028d5780638d51fa721461036357600080fd5b80632c011cc9116100d15780632c011cc9146101b65780633b8d72d2146101eb5780633b92c4d31461020b5780633ccfd60b1461023857600080fd5b80630d4acd161461010357806311e4695a1461012b57806326232a2e14610158578063279d0a191461018b575b600080fd5b610116610111366004611e89565b610442565b60405190151581526020015b60405180910390f35b34801561013757600080fd5b5061014b610146366004611eab565b61061f565b604051610122919061200d565b34801561016457600080fd5b5060015461017990600160401b900460ff1681565b60405160ff9091168152602001610122565b61019e610199366004612128565b61093f565b6040516001600160401b039091168152602001610122565b3480156101c257600080fd5b506101d66101d1366004611e89565b610d51565b60405161012299989796959493929190612175565b3480156101f757600080fd5b506101166102063660046121f4565b610edf565b34801561021757600080fd5b5061022b610226366004611e89565b611193565b6040516101229190612251565b34801561024457600080fd5b50610116611393565b61011661025b366004611e89565b611432565b34801561026c57600080fd5b5061028061027b366004611e89565b611603565b60405161012291906122c5565b34801561029957600080fd5b5061030f6102a8366004611e89565b6003602052600090815260409020805460018201546002909201546001600160401b0380831693600160401b9093046001600160a01b0316929163ffffffff811691640100000000820460ff90811692600160281b810490911691600160301b9091041687565b604080516001600160401b0398891681526001600160a01b03909716602088015286019490945263ffffffff909216606085015260ff166080840152151560a08301529190911660c082015260e001610122565b34801561036f57600080fd5b5060005461019e90600160a01b90046001600160401b031681565b34801561039657600080fd5b506000546103aa906001600160a01b031681565b6040516001600160a01b039091168152602001610122565b3480156103ce57600080fd5b506101166103dd3660046121f4565b6116eb565b3480156103ee57600080fd5b506104026103fd366004611eab565b6119a1565b60405161012291906122d3565b34801561041b57600080fd5b5060015461019e906001600160401b031681565b61019e61043d366004612321565b611b92565b6001600160401b0380821660008181526002602052604081208054919390929116146104895760405162461bcd60e51b815260040161048090612344565b60405180910390fd5b600481015433906001600160a01b0316156104e05760405162461bcd60e51b815260206004820152601760248201527613585d18da08185b1c9958591e4818dbdb5c1b195d1959604a1b6044820152606401610480565b60018201546001600160a01b0382811691161461054b5760405162461bcd60e51b815260206004820152602360248201527f4f6e6c7920746865206368616c6c656e67656420706c617965722063616e206a60448201526237b4b760e91b6064820152608401610480565b81600301543410156105b85760405162461bcd60e51b815260206004820152603060248201527f4465706f736974206d757374206d61746368206f72206578636565642074686560448201526f206368616c6c656e6765207374616b6560801b6064820152608401610480565b81546040516001600160a01b03600160401b9092048216918316906001600160401b038716907f554678d81968ce08342c84684377453bb348fbaae39fea1a3479b97c28d0593e9061060d9034815260200190565b60405180910390a45060019392505050565b60005460609083906001600160401b03600160a01b909104811690821611156106575750600054600160a01b90046001600160401b03165b60006106638483612383565b6000549091506001600160401b03600160a01b909104811690821611156106995750600054600160a01b90046001600160401b03165b60006106a583836123aa565b6001600160401b03166001600160401b038111156106c5576106c5612086565b6040519080825280602002602001820160405280156106fe57816020015b6106eb611e1f565b8152602001906001900390816106e35790505b509050825b826001600160401b0316816001600160401b03161015610933576002600061072c836001612383565b6001600160401b0390811682526020808301939093526040918201600020825161012081018452815492831681526001600160a01b03600160401b909304831694810194909452600181015490911691830191909152600281018054606084019190610797906123ca565b80601f01602080910402602001604051908101604052809291908181526020018280546107c3906123ca565b80156108105780601f106107e557610100808354040283529160200191610810565b820191906000526020600020905b8154815290600101906020018083116107f357829003601f168201915b50505091835250506003820154602082015260048201546001600160a01b03811660408301526001600160401b03600160a01b90910481166060830152600583015416608082015260068201805460a09092019161086d906123ca565b80601f0160208091040260200160405190810160405280929190818152602001828054610899906123ca565b80156108e65780601f106108bb576101008083540402835291602001916108e6565b820191906000526020600020905b8154815290600101906020018083116108c957829003601f168201915b5050505050815250508285836108fc91906123aa565b6001600160401b03168151811061091557610915612404565b6020026020010181905250808061092b9061241a565b915050610703565b50925050505b92915050565b600080341161099e5760405162461bcd60e51b815260206004820152602560248201527f4d75737420617474616368206465706f73697420746f206372656174652061206044820152640dac2e8c6d60db1b6064820152608401610480565b6001600160a01b03831633036109f65760405162461bcd60e51b815260206004820152601960248201527f43616e6e6f74206368616c6c656e676520796f757273656c66000000000000006044820152606401610480565b600080604051806060016040528060405180604001604052806006815260200165626174746c6560d01b8152508152602001604051806040016040528060048152602001636c6f766560e01b8152508152602001604051806040016040528060078152602001666d79737465727960c81b815250815250905060005b6003811015610aff57818160038110610a8d57610a8d612404565b6020020151604051602001610aa29190612440565b6040516020818303038152906040528051906020012085604051602001610ac99190612440565b6040516020818303038152906040528051906020012003610aed5760019250610aff565b80610af78161245c565b915050610a72565b5081610b415760405162461bcd60e51b8152602060048201526011602482015270496e76616c69642067616d65206d6f646560781b6044820152606401610480565b60008054610b6090600160a01b90046001600160401b03166001612383565b60408051610120810182526001600160401b038084168083523360208085019182526001600160a01b038d8116868801908152606087018e8152346080890152600060a0890181905242881660c08a015260e0890181905289518086018b528181526101008a0152958652600293849052979094208651815494518316600160401b026001600160e01b03199095169616959095179290921784559151600184018054919092166001600160a01b0319909116179055925193945090929091820190610c2c90826124c4565b506080820151600382015560a082015160048201805460c08501516001600160a01b039093166001600160e01b031990911617600160a01b6001600160401b039384160217905560e083015160058301805467ffffffffffffffff1916919092161790556101008201516006820190610ca590826124c4565b50506000805460019250601490610ccd908490600160a01b90046001600160401b0316612383565b92506101000a8154816001600160401b0302191690836001600160401b03160217905550856001600160a01b0316336001600160a01b0316826001600160401b03167f456002a7c4c83f93f0da7d0efb321068cbe739c1da413cb957d0ceda0a9a7d758834604051610d40929190612583565b60405180910390a495945050505050565b60026020819052600091825260409091208054600182015492820180546001600160401b038316946001600160a01b03600160401b9094048416949316929190610d9a906123ca565b80601f0160208091040260200160405190810160405280929190818152602001828054610dc6906123ca565b8015610e135780601f10610de857610100808354040283529160200191610e13565b820191906000526020600020905b815481529060010190602001808311610df657829003601f168201915b50505050600383015460048401546005850154600686018054959693956001600160a01b0384169550600160a01b9093046001600160401b0390811694921692610e5c906123ca565b80601f0160208091040260200160405190810160405280929190818152602001828054610e88906123ca565b8015610ed55780601f10610eaa57610100808354040283529160200191610ed5565b820191906000526020600020905b815481529060010190602001808311610eb857829003601f168201915b5050505050905089565b6001600160401b038084166000818152600260205260408120805491939092911614610f1d5760405162461bcd60e51b815260040161048090612344565b60048101546001600160a01b031615610f725760405162461bcd60e51b815260206004820152601760248201527613585d18da08185b1c9958591e4818dbdb5c1b195d1959604a1b6044820152606401610480565b80546001600160a01b03858116600160401b909204161480610fa3575060018101546001600160a01b038581169116145b610ffa5760405162461bcd60e51b815260206004820152602260248201527f57696e6e6572206d7573742062652061206d61746368207061727469636970616044820152611b9d60f21b6064820152608401610480565b6000546001600160a01b031633146110685760405162461bcd60e51b815260206004820152602b60248201527f4f6e6c792074686520636f6e7472616374206f776e65722063616e207265736f60448201526a6c7665206d61746368657360a81b6064820152608401610480565b6004810180546001600160a01b0319166001600160a01b03861617905560058101805467ffffffffffffffff1916426001600160401b0316179055600681016110b184826124c4565b506000816003015460026110c591906125a5565b6001549091506000906103e8906110e690600160401b900460ff16846125a5565b6110f091906125d2565b905060006110fe82846125e6565b6040519091506001600160a01b0388169082156108fc029083906000818181858888f19350505050158015611137573d6000803e3d6000fd5b50866001600160a01b0316886001600160401b03167fb2dd2e0920279a29596e37939857620dccccd479fb053fedd12caebc5a0debb4838960405161117d9291906125f9565b60405180910390a3506001979650505050505050565b61119b611e1f565b6001600160401b038083166000908152600260208181526040808420815161012081018352815496871681526001600160a01b03600160401b909704871693810193909352600181015490951690820152908301805492939192606084019190611204906123ca565b80601f0160208091040260200160405190810160405280929190818152602001828054611230906123ca565b801561127d5780601f106112525761010080835404028352916020019161127d565b820191906000526020600020905b81548152906001019060200180831161126057829003601f168201915b50505091835250506003820154602082015260048201546001600160a01b03811660408301526001600160401b03600160a01b90910481166060830152600583015416608082015260068201805460a0909201916112da906123ca565b80601f0160208091040260200160405190810160405280929190818152602001828054611306906123ca565b80156113535780601f1061132857610100808354040283529160200191611353565b820191906000526020600020905b81548152906001019060200180831161133657829003601f168201915b5050505050815250509050826001600160401b031681600001516001600160401b0316146109395760405162461bcd60e51b815260040161048090612344565b600080546001600160a01b031633146113ee5760405162461bcd60e51b815260206004820152601760248201527f4f6e6c79206f776e65722063616e2077697468647261770000000000000000006044820152606401610480565b6000805460405147926001600160a01b039092169183156108fc02918491818181858888f19350505050158015611429573d6000803e3d6000fd5b50600191505090565b6001600160401b0380821660008181526003602052604081208054919390929116146114705760405162461bcd60e51b81526004016104809061261a565b6002810154600160281b900460ff16156114c55760405162461bcd60e51b815260206004820152601660248201527514985a5908185b1c9958591e4818dbdb5c1b195d195960521b6044820152606401610480565b6000600a82600101546114d891906125d2565b60028301549091506000906114f590600a9063ffffffff16612647565b61150090600161266a565b6115109063ffffffff16836125a5565b90508034101561156e5760405162461bcd60e51b8152602060048201526024808201527f4465706f73697420696e73756666696369656e7420666f7220617474656d70746044820152632066656560e01b6064820152608401610480565b6002830180546001919060009061158c90849063ffffffff1661266a565b82546101009290920a63ffffffff818102199093169183160217909155600285015460408051919092168152602081018490523392506001600160401b038816917fc82113cf1522e8cf0f6b32405f45b2dcbbf46f6693ff85d6e90811b47428ae2a910160405180910390a3506001949350505050565b6040805160e081018252600080825260208201819052918101829052606081018290526080810182905260a0810182905260c08101919091526001600160401b03828116600081815260036020908152604091829020825160e0810184528154808716808352600160401b9091046001600160a01b0316938201939093526001820154938101939093526002015463ffffffff81166060840152640100000000810460ff9081166080850152600160281b820416151560a0840152600160301b900490931660c082015291146109395760405162461bcd60e51b81526004016104809061261a565b6001600160401b0380841660008181526003602052604081208054919390929116146117295760405162461bcd60e51b81526004016104809061261a565b6002810154600160281b900460ff161561177e5760405162461bcd60e51b815260206004820152601660248201527514985a5908185b1c9958591e4818dbdb5c1b195d195960521b6044820152606401610480565b6000546001600160a01b031633146117eb5760405162461bcd60e51b815260206004820152602a60248201527f4f6e6c792074686520636f6e7472616374206f776e65722063616e20636f6d706044820152696c65746520726169647360b01b6064820152608401610480565b60018101546002820154600091600a9161180b919063ffffffff166125a5565b61181591906125d2565b82600101546118249190612687565b600283015490915060329081906118429063ffffffff16600361269a565b63ffffffff16101561187b5760028301546118649063ffffffff16600361269a565b6118749063ffffffff16826125e6565b905061187f565b5060145b6000606461188d83856125a5565b61189791906125d2565b905060006118a582856125e6565b60028601805465ff00000000001916600160281b17905585546040519192506001600160a01b03600160401b909104169083156108fc029084906000818181858888f193505050501580156118fe573d6000803e3d6000fd5b506040516001600160a01b0389169082156108fc029083906000818181858888f19350505050158015611935573d6000803e3d6000fd5b50845460408051848152602081018490526001600160a01b03600160401b9093048316928b16916001600160401b038d16917fb5b5d6adbb1ba19a0f0c2df6cf856638b0ae5ba5a49e145c158deec78eadbf95910160405180910390a450600198975050505050505050565b60015460609083906001600160401b0390811690821611156119cb57506001546001600160401b03165b60006119d78483612383565b6001549091506001600160401b0390811690821611156119ff57506001546001600160401b03165b6000611a0b83836123aa565b6001600160401b03166001600160401b03811115611a2b57611a2b612086565b604051908082528060200260200182016040528015611a9257816020015b6040805160e08101825260008082526020808301829052928201819052606082018190526080820181905260a0820181905260c08201528252600019909201910181611a495790505b509050825b826001600160401b0316816001600160401b031610156109335760036000611ac0836001612383565b6001600160401b0390811682526020808301939093526040918201600020825160e081018452815480841682526001600160a01b03600160401b909104169481019490945260018101549284019290925260029091015463ffffffff8116606084015260ff640100000000820481166080850152600160281b820416151560a0840152600160301b90041660c082015282611b5b86846123aa565b6001600160401b031681518110611b7457611b74612404565b60200260200101819052508080611b8a9061241a565b915050611a97565b6000803411611bf55760405162461bcd60e51b815260206004820152602960248201527f4d75737420617474616368206465706f73697420746f206372656174652061206044820152681c985a59081c1bdbdb60ba1b6064820152608401610480565b60008260ff16118015611c0c5750600a8260ff1611155b611c645760405162461bcd60e51b815260206004820152602360248201527f446966666963756c7479206d757374206265206265747765656e203120616e6460448201526202031360ec1b6064820152608401610480565b60018054600091611c7e916001600160401b031690612383565b6040805160e0810182526001600160401b038084168083523360208085019182523485870190815260006060870181815260ff808e1660808a0190815260a08a01848152428a1660c08c0190815298855260039096529983209851895496516001600160a01b0316600160401b026001600160e01b03199097169089161795909517885591516001888101919091559151600290970180549851935195518716600160301b026dffffffffffffffff00000000000019961515600160281b02969096166dffffffffffffffffff000000000019949095166401000000000264ffffffffff1990991663ffffffff98909816979097179790971791909116919091179190911790925581549394509092839291611d9c91849116612383565b92506101000a8154816001600160401b0302191690836001600160401b03160217905550336001600160a01b0316816001600160401b03167f26f89054fd5c76bfc307e6c5dd8a234d1f887eb61c84f2bc8d5345ea4b0795523486604051611e1192919091825260ff16602082015260400190565b60405180910390a392915050565b604080516101208101825260008082526020820181905291810182905260608082018190526080820183905260a0820183905260c0820183905260e082019290925261010081019190915290565b80356001600160401b0381168114611e8457600080fd5b919050565b600060208284031215611e9b57600080fd5b611ea482611e6d565b9392505050565b60008060408385031215611ebe57600080fd5b611ec783611e6d565b9150611ed560208401611e6d565b90509250929050565b60005b83811015611ef9578181015183820152602001611ee1565b50506000910152565b60008151808452611f1a816020860160208601611ede565b601f01601f19169290920160200192915050565b80516001600160401b0316825260006101206020830151611f5a60208601826001600160a01b03169052565b506040830151611f7560408601826001600160a01b03169052565b506060830151816060860152611f8d82860182611f02565b9150506080830151608085015260a0830151611fb460a08601826001600160a01b03169052565b5060c0830151611fcf60c08601826001600160401b03169052565b5060e0830151611fea60e08601826001600160401b03169052565b5061010080840151858303828701526120038382611f02565b9695505050505050565b6000602080830181845280855180835260408601915060408160051b870101925083870160005b8281101561206257603f19888603018452612050858351611f2e565b94509285019290850190600101612034565b5092979650505050505050565b80356001600160a01b0381168114611e8457600080fd5b634e487b7160e01b600052604160045260246000fd5b600082601f8301126120ad57600080fd5b81356001600160401b03808211156120c7576120c7612086565b604051601f8301601f19908116603f011681019082821181831017156120ef576120ef612086565b8160405283815286602085880101111561210857600080fd5b836020870160208301376000602085830101528094505050505092915050565b6000806040838503121561213b57600080fd5b6121448361206f565b915060208301356001600160401b0381111561215f57600080fd5b61216b8582860161209c565b9150509250929050565b60006101206001600160401b03808d16845260018060a01b03808d166020860152808c1660408601528260608601526121b08386018c611f02565b608086018b905290891660a086015287821660c086015290861660e085015283810361010085015290506121e48185611f02565b9c9b505050505050505050505050565b60008060006060848603121561220957600080fd5b61221284611e6d565b92506122206020850161206f565b915060408401356001600160401b0381111561223b57600080fd5b6122478682870161209c565b9150509250925092565b602081526000611ea46020830184611f2e565b80516001600160401b0390811683526020808301516001600160a01b0316908401526040808301519084015260608083015163ffffffff169084015260808083015160ff169084015260a08083015115159084015260c09182015116910152565b60e081016109398284612264565b6020808252825182820181905260009190848201906040850190845b8181101561231557612302838551612264565b9284019260e092909201916001016122ef565b50909695505050505050565b60006020828403121561233357600080fd5b813560ff81168114611ea457600080fd5b6020808252600f908201526e13585d18da081b9bdd08199bdd5b99608a1b604082015260600190565b634e487b7160e01b600052601160045260246000fd5b6001600160401b038181168382160190808211156123a3576123a361236d565b5092915050565b6001600160401b038281168282160390808211156123a3576123a361236d565b600181811c908216806123de57607f821691505b6020821081036123fe57634e487b7160e01b600052602260045260246000fd5b50919050565b634e487b7160e01b600052603260045260246000fd5b60006001600160401b038083168181036124365761243661236d565b6001019392505050565b60008251612452818460208701611ede565b9190910192915050565b60006001820161246e5761246e61236d565b5060010190565b601f8211156124bf57600081815260208120601f850160051c8101602086101561249c5750805b601f850160051c820191505b818110156124bb578281556001016124a8565b5050505b505050565b81516001600160401b038111156124dd576124dd612086565b6124f1816124eb84546123ca565b84612475565b602080601f831160018114612526576000841561250e5750858301515b600019600386901b1c1916600185901b1785556124bb565b600085815260208120601f198616915b8281101561255557888601518255948401946001909101908401612536565b50858210156125735787850151600019600388901b60f8161c191681555b5050505050600190811b01905550565b6040815260006125966040830185611f02565b90508260208301529392505050565b80820281158282048414176109395761093961236d565b634e487b7160e01b600052601260045260246000fd5b6000826125e1576125e16125bc565b500490565b818103818111156109395761093961236d565b8281526040602082015260006126126040830184611f02565b949350505050565b60208082526013908201527214985a59081c1bdbdb081b9bdd08199bdd5b99606a1b604082015260600190565b600063ffffffff8084168061265e5761265e6125bc565b92169190910492915050565b63ffffffff8181168382160190808211156123a3576123a361236d565b808201808211156109395761093961236d565b63ffffffff8181168382160280821691908281146126ba576126ba61236d565b50509291505056fea2646970667358221220e5f27a00dd0967ac042142fc886ba3ac66d41307294a85ce01411840cd24818364736f6c63430008130033",
  "linkReferences": {},
  "deployedLinkReferences": {}
}