{
  "_format": "hh-sol-artifact-1",
  "contractName": "BaultroFinal",
  "sourceName": "contracts/BaultroFinal.sol",
  "abi": [
    {
      "inputs": [],
      "stateMutability": "nonpayable",
      "type": "constructor"
    },
    {
      "anonymous": false,
      "inputs": [
        {
          "indexed": true,
          "internalType": "uint64",
          "name": "predictionId",
          "type": "uint64"
        },
        {
          "indexed": true,
          "internalType": "address",
          "name": "bettor",
          "type": "address"
        },
        {
          "indexed": false,
          "internalType": "uint8",
          "name": "optionId",
          "type": "uint8"
        },
        {
          "indexed": false,
          "internalType": "uint256",
          "name": "amount",
          "type": "uint256"
        }
      ],
      "name": "BetPlaced",
      "type": "event"
    },
    {
      "anonymous": false,
      "inputs": [
        {
          "indexed": true,
          "internalType": "uint64",
          "name": "predictionId",
          "type": "uint64"
        },
        {
          "indexed": true,
          "internalType": "address",
          "name": "bettor",
          "type": "address"
        },
        {
          "indexed": false,
          "internalType": "uint8",
          "name": "optionId",
          "type": "uint8"
        },
        {
          "indexed": false,
          "internalType": "uint256",
          "name": "amount",
          "type": "uint256"
        },
        {
          "indexed": false,
          "internalType": "string",
          "name": "sourceChain",
          "type": "string"
        },
        {
          "indexed": false,
          "internalType": "string",
          "name": "txHash",
          "type": "string"
        }
      ],
      "name": "CrossChainBetRecorded",
      "type": "event"
    },
    {
      "anonymous": false,
      "inputs": [
        {
          "indexed": false,
          "internalType": "address",
          "name": "intentsContract",
          "type": "address"
        }
      ],
      "name": "IntegrationsUpdated",
      "type": "event"
    },
    {
      "anonymous": false,
      "inputs": [
        {
          "indexed": true,
          "internalType": "uint64",
          "name": "predictionId",
          "type": "uint64"
        },
        {
          "indexed": true,
          "internalType": "address",
          "name": "creator",
          "type": "address"
        },
        {
          "indexed": false,
          "internalType": "string",
          "name": "title",
          "type": "string"
        },
        {
          "indexed": false,
          "internalType": "uint256",
          "name": "stake",
          "type": "uint256"
        }
      ],
      "name": "PredictionCreated",
      "type": "event"
    },
    {
      "anonymous": false,
      "inputs": [
        {
          "indexed": true,
          "internalType": "uint64",
          "name": "predictionId",
          "type": "uint64"
        },
        {
          "indexed": false,
          "internalType": "int8",
          "name": "winningOption",
          "type": "int8"
        }
      ],
      "name": "PredictionResolved",
      "type": "event"
    },
    {
      "anonymous": false,
      "inputs": [
        {
          "indexed": true,
          "internalType": "uint64",
          "name": "predictionId",
          "type": "uint64"
        },
        {
          "indexed": true,
          "internalType": "address",
          "name": "bettor",
          "type": "address"
        },
        {
          "indexed": false,
          "internalType": "uint256",
          "name": "amount",
          "type": "uint256"
        }
      ],
      "name": "WinningsClaimed",
      "type": "event"
    },
    {
      "inputs": [
        {
          "internalType": "bytes32",
          "name": "",
          "type": "bytes32"
        }
      ],
      "name": "bets",
      "outputs": [
        {
          "internalType": "uint64",
          "name": "predictionId",
          "type": "uint64"
        },
        {
          "internalType": "address",
          "name": "bettor",
          "type": "address"
        },
        {
          "internalType": "uint8",
          "name": "optionId",
          "type": "uint8"
        },
        {
          "internalType": "uint256",
          "name": "amount",
          "type": "uint256"
        },
        {
          "internalType": "uint64",
          "name": "createdAt",
          "type": "uint64"
        },
        {
          "internalType": "bool",
          "name": "claimed",
          "type": "bool"
        }
      ],
      "stateMutability": "view",
      "type": "function"
    },
    {
      "inputs": [
        {
          "internalType": "uint64",
          "name": "predictionId",
          "type": "uint64"
        }
      ],
      "name": "claimWinnings",
      "outputs": [
        {
          "internalType": "bool",
          "name": "",
          "type": "bool"
        }
      ],
      "stateMutability": "nonpayable",
      "type": "function"
    },
    {
      "inputs": [
        {
          "internalType": "string",
          "name": "title",
          "type": "string"
        },
        {
          "internalType": "string",
          "name": "description",
          "type": "string"
        },
        {
          "internalType": "string[]",
          "name": "options",
          "type": "string[]"
        }
      ],
      "name": "createPrediction",
      "outputs": [
        {
          "internalType": "uint256",
          "name": "",
          "type": "uint256"
        }
      ],
      "stateMutability": "payable",
      "type": "function"
    },
    {
      "inputs": [
        {
          "internalType": "string",
          "name": "",
          "type": "string"
        }
      ],
      "name": "crossChainBets",
      "outputs": [
        {
          "internalType": "uint64",
          "name": "predictionId",
          "type": "uint64"
        },
        {
          "internalType": "address",
          "name": "bettor",
          "type": "address"
        },
        {
          "internalType": "uint8",
          "name": "optionId",
          "type": "uint8"
        },
        {
          "internalType": "uint256",
          "name": "amount",
          "type": "uint256"
        },
        {
          "internalType": "string",
          "name": "sourceChain",
          "type": "string"
        },
        {
          "internalType": "string",
          "name": "txHash",
          "type": "string"
        },
        {
          "internalType": "uint64",
          "name": "createdAt",
          "type": "uint64"
        },
        {
          "internalType": "bool",
          "name": "claimed",
          "type": "bool"
        }
      ],
      "stateMutability": "view",
      "type": "function"
    },
    {
      "inputs": [
        {
          "internalType": "string",
          "name": "sourceChain",
          "type": "string"
        },
        {
          "internalType": "uint64",
          "name": "predictionId",
          "type": "uint64"
        },
        {
          "internalType": "uint8",
          "name": "optionId",
          "type": "uint8"
        }
      ],
      "name": "executeCrossChainBet",
      "outputs": [
        {
          "internalType": "string",
          "name": "",
          "type": "string"
        }
      ],
      "stateMutability": "payable",
      "type": "function"
    },
    {
      "inputs": [
        {
          "internalType": "uint64",
          "name": "predictionId",
          "type": "uint64"
        },
        {
          "internalType": "address",
          "name": "bettor",
          "type": "address"
        }
      ],
      "name": "getBet",
      "outputs": [
        {
          "components": [
            {
              "internalType": "uint64",
              "name": "predictionId",
              "type": "uint64"
            },
            {
              "internalType": "address",
              "name": "bettor",
              "type": "address"
            },
            {
              "internalType": "uint8",
              "name": "optionId",
              "type": "uint8"
            },
            {
              "internalType": "uint256",
              "name": "amount",
              "type": "uint256"
            },
            {
              "internalType": "uint64",
              "name": "createdAt",
              "type": "uint64"
            },
            {
              "internalType": "bool",
              "name": "claimed",
              "type": "bool"
            }
          ],
          "internalType": "struct BaultroFinal.Bet",
          "name": "",
          "type": "tuple"
        }
      ],
      "stateMutability": "view",
      "type": "function"
    },
    {
      "inputs": [
        {
          "internalType": "string",
          "name": "txHash",
          "type": "string"
        }
      ],
      "name": "getCrossChainBet",
      "outputs": [
        {
          "components": [
            {
              "internalType": "uint64",
              "name": "predictionId",
              "type": "uint64"
            },
            {
              "internalType": "address",
              "name": "bettor",
              "type": "address"
            },
            {
              "internalType": "uint8",
              "name": "optionId",
              "type": "uint8"
            },
            {
              "internalType": "uint256",
              "name": "amount",
              "type": "uint256"
            },
            {
              "internalType": "string",
              "name": "sourceChain",
              "type": "string"
            },
            {
              "internalType": "string",
              "name": "txHash",
              "type": "string"
            },
            {
              "internalType": "uint64",
              "name": "createdAt",
              "type": "uint64"
            },
            {
              "internalType": "bool",
              "name": "claimed",
              "type": "bool"
            }
          ],
          "internalType": "struct BaultroFinal.CrossChainBet",
          "name": "",
          "type": "tuple"
        }
      ],
      "stateMutability": "view",
      "type": "function"
    },
    {
      "inputs": [],
      "name": "getIntegrationContracts",
      "outputs": [
        {
          "internalType": "address",
          "name": "",
          "type": "address"
        }
      ],
      "stateMutability": "view",
      "type": "function"
    },
    {
      "inputs": [],
      "name": "getPlatformFee",
      "outputs": [
        {
          "internalType": "uint8",
          "name": "",
          "type": "uint8"
        }
      ],
      "stateMutability": "view",
      "type": "function"
    },
    {
      "inputs": [
        {
          "internalType": "uint64",
          "name": "predictionId",
          "type": "uint64"
        }
      ],
      "name": "getPrediction",
      "outputs": [
        {
          "components": [
            {
              "internalType": "uint64",
              "name": "id",
              "type": "uint64"
            },
            {
              "internalType": "address",
              "name": "creator",
              "type": "address"
            },
            {
              "internalType": "string",
              "name": "title",
              "type": "string"
            },
            {
              "internalType": "string",
              "name": "description",
              "type": "string"
            },
            {
              "internalType": "string[]",
              "name": "options",
              "type": "string[]"
            },
            {
              "internalType": "uint256",
              "name": "stake",
              "type": "uint256"
            },
            {
              "internalType": "uint256",
              "name": "totalBets",
              "type": "uint256"
            },
            {
              "internalType": "int8",
              "name": "resolvedOption",
              "type": "int8"
            },
            {
              "internalType": "uint64",
              "name": "createdAt",
              "type": "uint64"
            },
            {
              "internalType": "uint64",
              "name": "resolvedAt",
              "type": "uint64"
            }
          ],
          "internalType": "struct BaultroFinal.Prediction",
          "name": "",
          "type": "tuple"
        }
      ],
      "stateMutability": "view",
      "type": "function"
    },
    {
      "inputs": [
        {
          "internalType": "uint64",
          "name": "fromIndex",
          "type": "uint64"
        },
        {
          "internalType": "uint64",
          "name": "limit",
          "type": "uint64"
        }
      ],
      "name": "getPredictions",
      "outputs": [
        {
          "components": [
            {
              "internalType": "uint64",
              "name": "id",
              "type": "uint64"
            },
            {
              "internalType": "address",
              "name": "creator",
              "type": "address"
            },
            {
              "internalType": "string",
              "name": "title",
              "type": "string"
            },
            {
              "internalType": "string",
              "name": "description",
              "type": "string"
            },
            {
              "internalType": "string[]",
              "name": "options",
              "type": "string[]"
            },
            {
              "internalType": "uint256",
              "name": "stake",
              "type": "uint256"
            },
            {
              "internalType": "uint256",
              "name": "totalBets",
              "type": "uint256"
            },
            {
              "internalType": "int8",
              "name": "resolvedOption",
              "type": "int8"
            },
            {
              "internalType": "uint64",
              "name": "createdAt",
              "type": "uint64"
            },
            {
              "internalType": "uint64",
              "name": "resolvedAt",
              "type": "uint64"
            }
          ],
          "internalType": "struct BaultroFinal.Prediction[]",
          "name": "",
          "type": "tuple[]"
        }
      ],
      "stateMutability": "view",
      "type": "function"
    },
    {
      "inputs": [],
      "name": "getPredictionsCount",
      "outputs": [
        {
          "internalType": "uint64",
          "name": "",
          "type": "uint64"
        }
      ],
      "stateMutability": "view",
      "type": "function"
    },
    {
      "inputs": [],
      "name": "getTotalStake",
      "outputs": [
        {
          "internalType": "uint256",
          "name": "",
          "type": "uint256"
        }
      ],
      "stateMutability": "view",
      "type": "function"
    },
    {
      "inputs": [],
      "name": "intentsContract",
      "outputs": [
        {
          "internalType": "address",
          "name": "",
          "type": "address"
        }
      ],
      "stateMutability": "view",
      "type": "function"
    },
    {
      "inputs": [],
      "name": "owner",
      "outputs": [
        {
          "internalType": "address",
          "name": "",
          "type": "address"
        }
      ],
      "stateMutability": "view",
      "type": "function"
    },
    {
      "inputs": [
        {
          "internalType": "uint64",
          "name": "predictionId",
          "type": "uint64"
        },
        {
          "internalType": "uint8",
          "name": "optionId",
          "type": "uint8"
        }
      ],
      "name": "placeBet",
      "outputs": [],
      "stateMutability": "payable",
      "type": "function"
    },
    {
      "inputs": [],
      "name": "platformFee",
      "outputs": [
        {
          "internalType": "uint8",
          "name": "",
          "type": "uint8"
        }
      ],
      "stateMutability": "view",
      "type": "function"
    },
    {
      "inputs": [
        {
          "internalType": "uint64",
          "name": "",
          "type": "uint64"
        }
      ],
      "name": "predictions",
      "outputs": [
        {
          "internalType": "uint64",
          "name": "id",
          "type": "uint64"
        },
        {
          "internalType": "address",
          "name": "creator",
          "type": "address"
        },
        {
          "internalType": "string",
          "name": "title",
          "type": "string"
        },
        {
          "internalType": "string",
          "name": "description",
          "type": "string"
        },
        {
          "internalType": "uint256",
          "name": "stake",
          "type": "uint256"
        },
        {
          "internalType": "uint256",
          "name": "totalBets",
          "type": "uint256"
        },
        {
          "internalType": "int8",
          "name": "resolvedOption",
          "type": "int8"
        },
        {
          "internalType": "uint64",
          "name": "createdAt",
          "type": "uint64"
        },
        {
          "internalType": "uint64",
          "name": "resolvedAt",
          "type": "uint64"
        }
      ],
      "stateMutability": "view",
      "type": "function"
    },
    {
      "inputs": [],
      "name": "predictionsCount",
      "outputs": [
        {
          "internalType": "uint64",
          "name": "",
          "type": "uint64"
        }
      ],
      "stateMutability": "view",
      "type": "function"
    },
    {
      "inputs": [
        {
          "internalType": "uint64",
          "name": "predictionId",
          "type": "uint64"
        },
        {
          "internalType": "int8",
          "name": "winningOption",
          "type": "int8"
        }
      ],
      "name": "resolvePrediction",
      "outputs": [
        {
          "internalType": "bool",
          "name": "",
          "type": "bool"
        }
      ],
      "stateMutability": "nonpayable",
      "type": "function"
    },
    {
      "inputs": [],
      "name": "totalStake",
      "outputs": [
        {
          "internalType": "uint256",
          "name": "",
          "type": "uint256"
        }
      ],
      "stateMutability": "view",
      "type": "function"
    },
    {
      "inputs": [
        {
          "internalType": "address",
          "name": "_intentsContract",
          "type": "address"
        }
      ],
      "name": "updateIntegrations",
      "outputs": [
        {
          "internalType": "bool",
          "name": "",
          "type": "bool"
        }
      ],
      "stateMutability": "nonpayable",
      "type": "function"
    },
    {
      "inputs": [],
      "name": "withdraw",
      "outputs": [
        {
          "internalType": "bool",
          "name": "",
          "type": "bool"
        }
      ],
      "stateMutability": "nonpayable",
      "type": "function"
    }
  ],
  "bytecode": "0x60806040523480156200001157600080fd5b5060405162002f8938038062002f89833981016040819052620000349162000146565b6001600160a01b038216620000905760405162461bcd60e51b815260206004820152601c60248201527f4f776e657220616464726573732063616e6e6f74206265207a65726f0000000060448201526064015b60405180910390fd5b60c88160ff161115620000e65760405162461bcd60e51b815260206004820152601e60248201527f506c6174666f726d206665652063616e6e6f7420657863656564203230250000604482015260640162000087565b600080546001600160a01b0319166001600160a01b03841617905560ff81166200011257600a62000114565b805b6002805460ff191660ff92909216919091179055505060008054600160a01b600160e01b031916815560015562000195565b600080604083850312156200015a57600080fd5b82516001600160a01b03811681146200017257600080fd5b602084015190925060ff811681146200018a57600080fd5b809150509250929050565b612de480620001a56000396000f3fe6080604052600436106101405760003560e01c80637d31f406116100b6578063ae32d4391161006f578063ae32d43914610437578063c902c3ae14610457578063cf2c525914610513578063cf68116d14610538578063ea1e302d1461055d578063f740a3891461057057600080fd5b80637d31f406146103515780637efbb5ac146103865780638b0e9f3f146103ba5780638da5cb5b146103d0578063a1eff021146103f0578063a6f1c7861461041057600080fd5b80633ccfd60b116101085780633ccfd60b146102835780633f298e86146102985780634a80add7146102cf5780635a94652d146102fa5780636ea8bc101461031a5780637bc742251461033257600080fd5b806308f7ed501461014557806326232a2e1461017a578063277ed8ac146101a65780632c5f785214610229578063392a684b14610256575b600080fd5b34801561015157600080fd5b50610165610160366004612325565b61059d565b60405190151581526020015b60405180910390f35b34801561018657600080fd5b506002546101949060ff1681565b60405160ff9091168152602001610171565b3480156101b257600080fd5b506101c66101c136600461235e565b610893565b604051610171919081516001600160401b0390811682526020808401516001600160a01b03169083015260408084015160ff1690830152606080840151908301526080808401519091169082015260a09182015115159181019190915260c00190565b34801561023557600080fd5b50610249610244366004612391565b6109b0565b604051610171919061253e565b34801561026257600080fd5b50610276610271366004612655565b610d97565b6040516101719190612691565b34801561028f57600080fd5b50610165610ff8565b3480156102a457600080fd5b5060025461010090046001600160a01b03165b6040516001600160a01b039091168152602001610171565b6102e26102dd366004612743565b6110cc565b6040516001600160401b039091168152602001610171565b61030d61030836600461285d565b611405565b60405161017191906128ba565b34801561032657600080fd5b5060025460ff16610194565b34801561033e57600080fd5b506001545b604051908152602001610171565b34801561035d57600080fd5b5061037161036c366004612325565b6116bf565b604051610171999897969594939291906128cd565b34801561039257600080fd5b506103a66103a1366004612655565b611840565b60405161017198979695949392919061294d565b3480156103c657600080fd5b5061034360015481565b3480156103dc57600080fd5b506000546102b7906001600160a01b031681565b3480156103fc57600080fd5b5061016561040b3660046129c2565b6119c6565b34801561041c57600080fd5b506000546102e290600160a01b90046001600160401b031681565b34801561044357600080fd5b506101656104523660046129dd565b611a9a565b34801561046357600080fd5b506104c5610472366004612a1a565b6004602052600090815260409020805460018201546002909201546001600160401b0380831693600160401b8085046001600160a01b031694600160e01b900460ff908116949293831692919091041686565b604080516001600160401b0397881681526001600160a01b03909616602087015260ff90941693850193909352606084019190915292909216608082015290151560a082015260c001610171565b34801561051f57600080fd5b506002546102b79061010090046001600160a01b031681565b34801561054457600080fd5b50600054600160a01b90046001600160401b03166102e2565b61016561056b366004612a33565b611ca5565b34801561057c57600080fd5b5061059061058b366004612325565b611ee6565b6040516101719190612a5d565b6001600160401b0380821660008181526003602052604081208054919390929116146105e45760405162461bcd60e51b81526004016105db90612a70565b60405180910390fd5b6006810154600090810b12156106485760405162461bcd60e51b8152602060048201526024808201527f50726564696374696f6e206e6f74207265736f6c766564206f722063616e63656044820152631b1b195960e21b60648201526084016105db565b60405133906000906106609086908490602001612a9e565b60408051808303601f1901815291815281516020928301206000818152600490935291208054919250906001600160a01b03848116600160401b90920416146106eb5760405162461bcd60e51b815260206004820181905260248201527f4e6f2062657420666f756e6420666f7220746869732070726564696374696f6e60448201526064016105db565b6002810154600160401b900460ff16156107475760405162461bcd60e51b815260206004820152601860248201527f57696e6e696e677320616c726561647920636c61696d6564000000000000000060448201526064016105db565b60068401548154600160e01b900460ff9081169116146107a95760405162461bcd60e51b815260206004820152601c60248201527f426574206973206e6f74206f6e2077696e6e696e67206f7074696f6e0000000060448201526064016105db565b60025460058501546000916103e8916107c59160ff1690612ae3565b6107cf9190612afa565b90506000826001015460026107e49190612ae3565b60028401805468ff00000000000000001916600160401b1790556040519091506001600160a01b0386169082156108fc029083906000818181858888f19350505050158015610837573d6000803e3d6000fd5b50846001600160a01b0316886001600160401b03167f627fd0b1effc8da392e8b969c5666d7dd7682716336b1488b7225363923253e08360405161087d91815260200190565b60405180910390a3506001979650505050505050565b6040805160c081018252600080825260208201819052918101829052606081018290526080810182905260a0810191909152600083836040516020016108da929190612a9e565b60408051601f19818403018152828252805160209182012060008181526004835283902060c08501845280546001600160401b0380821687526001600160a01b03600160401b808404821696890187905260ff600160e01b90940484169789019790975260018401546060890152600290930154908116608088015294909404909316151560a08501529350908516146109a65760405162461bcd60e51b815260206004820152600d60248201526c10995d081b9bdd08199bdd5b99609a1b60448201526064016105db565b9150505b92915050565b60005460609083906001600160401b03600160a01b909104811690821611156109e85750600054600160a01b90046001600160401b03165b60006109f48483612b1c565b6000549091506001600160401b03600160a01b90910481169082161115610a2a5750600054600160a01b90046001600160401b03165b6000610a368383612b43565b6001600160401b03166001600160401b03811115610a5657610a566125a0565b604051908082528060200260200182016040528015610a8f57816020015b610a7c6121cb565b815260200190600190039081610a745790505b509050825b826001600160401b0316816001600160401b03161015610d8d5760036000610abd836001612b1c565b6001600160401b039081168252602080830193909352604091820160002082516101408101845281549283168152600160401b9092046001600160a01b031693820193909352600183018054919392840191610b1890612b63565b80601f0160208091040260200160405190810160405280929190818152602001828054610b4490612b63565b8015610b915780601f10610b6657610100808354040283529160200191610b91565b820191906000526020600020905b815481529060010190602001808311610b7457829003601f168201915b50505050508152602001600282018054610baa90612b63565b80601f0160208091040260200160405190810160405280929190818152602001828054610bd690612b63565b8015610c235780601f10610bf857610100808354040283529160200191610c23565b820191906000526020600020905b815481529060010190602001808311610c0657829003601f168201915b5050505050815260200160038201805480602002602001604051908101604052809291908181526020016000905b82821015610cfd578382906000526020600020018054610c7090612b63565b80601f0160208091040260200160405190810160405280929190818152602001828054610c9c90612b63565b8015610ce95780601f10610cbe57610100808354040283529160200191610ce9565b820191906000526020600020905b815481529060010190602001808311610ccc57829003601f168201915b505050505081526020019060010190610c51565b505050908252506004820154602082015260058201546040820152600690910154600081900b60608301526001600160401b03610100820481166080840152600160481b9091041660a09091015282610d568684612b43565b6001600160401b031681518110610d6f57610d6f612b9d565b60200260200101819052508080610d8590612bb3565b915050610a94565b5095945050505050565b604080516101008101825260008082526020820181905291810182905260608082018390526080820181905260a082015260c0810182905260e08101919091526000600583604051610de99190612bd9565b90815260408051602092819003830181206101008201835280546001600160401b0381168352600160401b81046001600160a01b031694830194909452600160e01b90930460ff169181019190915260018201546060820152600282018054919291608084019190610e5a90612b63565b80601f0160208091040260200160405190810160405280929190818152602001828054610e8690612b63565b8015610ed35780601f10610ea857610100808354040283529160200191610ed3565b820191906000526020600020905b815481529060010190602001808311610eb657829003601f168201915b50505050508152602001600382018054610eec90612b63565b80601f0160208091040260200160405190810160405280929190818152602001828054610f1890612b63565b8015610f655780601f10610f3a57610100808354040283529160200191610f65565b820191906000526020600020905b815481529060010190602001808311610f4857829003601f168201915b5050509183525050600491909101546001600160401b038116602080840191909152600160401b90910460ff1615156040909201919091528101519091506001600160a01b03166109aa5760405162461bcd60e51b815260206004820152601960248201527f43726f73732d636861696e20626574206e6f7420666f756e640000000000000060448201526064016105db565b600080546001600160a01b0316331461105f5760405162461bcd60e51b8152602060048201526024808201527f4f6e6c792074686520636f6e7472616374206f776e65722063616e20776974686044820152636472617760e01b60648201526084016105db565b6002546001546000916103e8916110799160ff1690612ae3565b6110839190612afa565b6000600181905580546040519293506001600160a01b03169183156108fc0291849190818181858888f193505050501580156110c3573d6000803e3d6000fd5b50600191505090565b6000808451116111165760405162461bcd60e51b81526020600482015260156024820152745469746c652063616e6e6f7420626520656d70747960581b60448201526064016105db565b6002825110156111785760405162461bcd60e51b815260206004820152602760248201527f50726564696374696f6e206d7573742068617665206174206c656173742032206044820152666f7074696f6e7360c81b60648201526084016105db565b600a825111156111de5760405162461bcd60e51b815260206004820152602b60248201527f50726564696374696f6e2063616e6e6f742068617665206d6f7265207468616e60448201526a203130206f7074696f6e7360a81b60648201526084016105db565b600080543491339161120190600160a01b90046001600160401b03166001612b1c565b60408051610140810182526001600160401b038084168083526001600160a01b0380881660208086019182528587018f8152606087018f9052608087018e905260a087018c9052600060c0880181905260001960e08901524287166101008901526101208801819052948552600390915295909220845181549351909216600160401b026001600160e01b0319909316919093161717815591519293509160018201906112ae9082612c44565b50606082015160028201906112c39082612c44565b50608082015180516112df916003840191602090910190612244565b5060a0820151600482015560c0820151600582015560e082015160069091018054610100808501516101209095015160ff90941668ffffffffffffffffff19909216919091176001600160401b039485169091021767ffffffffffffffff60481b1916600160481b9284169290920291909117905560008054600192601491611371918591600160a01b900416612b1c565b92506101000a8154816001600160401b0302191690836001600160401b0316021790555082600160008282546113a79190612d03565b92505081905550816001600160a01b0316816001600160401b03167f69586a169a8692005020adfad41eeac087b9f3517799240586e6c8d9f935e30989866040516113f3929190612d16565b60405180910390a39695505050505050565b6001600160401b038083166000818152600360205260409020805460609391929116146114445760405162461bcd60e51b81526004016105db90612a70565b600681015460000b6000191461146c5760405162461bcd60e51b81526004016105db90612d38565b600381015460ff8416106114b65760405162461bcd60e51b8152602060048201526011602482015270125b9d985b1a59081bdc1d1a5bdb881251607a1b60448201526064016105db565b6040516274785f60e81b6020820152426023820152605f60f81b60438201523360448201819052349160009060640160408051601f19818403018152610100830182526001600160401b03808b1684526001600160a01b038616602085015260ff8a168484015260608401879052608084018c905260a08401829052421660c0840152600060e08401529051909250600590611553908490612bd9565b9081526040805191829003602090810190922083518154938501519285015160ff16600160e01b0260ff60e01b196001600160a01b03909416600160401b026001600160e01b03199095166001600160401b0390921691909117939093179190911691909117815560608201516001820155608082015160028201906115d99082612c44565b5060a082015160038201906115ee9082612c44565b5060c08201516004909101805460e0909301511515600160401b0268ffffffffffffffffff199093166001600160401b0390921691909117919091179055600584018054849190600090611643908490612d03565b92505081905550826001600082825461165c9190612d03565b92505081905550816001600160a01b0316876001600160401b03167fe6080b786446e3d53adad47ca6cd7f3d0d265ea09cf20b4ea9f3cd3718bd65a888868c866040516116ac9493929190612d6f565b60405180910390a3979650505050505050565b600360205260009081526040902080546001820180546001600160401b03831693600160401b9093046001600160a01b03169291906116fd90612b63565b80601f016020809104026020016040519081016040528092919081815260200182805461172990612b63565b80156117765780601f1061174b57610100808354040283529160200191611776565b820191906000526020600020905b81548152906001019060200180831161175957829003601f168201915b50505050509080600201805461178b90612b63565b80601f01602080910402602001604051908101604052809291908181526020018280546117b790612b63565b80156118045780601f106117d957610100808354040283529160200191611804565b820191906000526020600020905b8154815290600101906020018083116117e757829003601f168201915b5050506004840154600585015460069095015493949093909250600081900b91506001600160401b036101008204811691600160481b90041689565b80516020818301810180516005825292820191909301209152805460018201546002830180546001600160401b03841694600160401b85046001600160a01b031694600160e01b900460ff169392909161189990612b63565b80601f01602080910402602001604051908101604052809291908181526020018280546118c590612b63565b80156119125780601f106118e757610100808354040283529160200191611912565b820191906000526020600020905b8154815290600101906020018083116118f557829003601f168201915b50505050509080600301805461192790612b63565b80601f016020809104026020016040519081016040528092919081815260200182805461195390612b63565b80156119a05780601f10611975576101008083540402835291602001916119a0565b820191906000526020600020905b81548152906001019060200180831161198357829003601f168201915b505050600490930154919250506001600160401b0381169060ff600160401b9091041688565b600080546001600160a01b03163314611a395760405162461bcd60e51b815260206004820152602f60248201527f4f6e6c792074686520636f6e7472616374206f776e65722063616e207570646160448201526e746520696e746567726174696f6e7360881b60648201526084016105db565b60028054610100600160a81b0319166101006001600160a01b038516908102919091179091556040519081527fe89b0116407ded784880f4938928e6eeeec496fe39f30fc23eaa774d4829daed9060200160405180910390a1506001919050565b6001600160401b038083166000818152600360205260408120805491939092911614611ad85760405162461bcd60e51b81526004016105db90612a70565b8054600160401b90046001600160a01b0316331480611b0157506000546001600160a01b031633145b611b815760405162461bcd60e51b815260206004820152604560248201527f4f6e6c79207468652070726564696374696f6e2063726561746f72206f72206360448201527f6f6e7472616374206f776e65722063616e207265736f6c76652070726564696360648201526474696f6e7360d81b608482015260a4016105db565b600681015460000b60001914611ba95760405162461bcd60e51b81526004016105db90612d38565b8260000b6000191480611bd1575060008360000b12158015611bd15750600381015460ff8416105b611c165760405162461bcd60e51b815260206004820152601660248201527524b73b30b634b2103bb4b73734b7339037b83a34b7b760511b60448201526064016105db565b60068101805460ff191660ff8516179055600083810b12611c595760068101805467ffffffffffffffff60481b1916600160481b426001600160401b0316021790555b604051600084900b81526001600160401b038516907f0f42b3976c4db2a7fea9c58336a31afc4837ceff78db738b87828079867a51e29060200160405180910390a25060019392505050565b6001600160401b038083166000818152600360205260408120805491933493339390911614611ce65760405162461bcd60e51b81526004016105db90612a70565b600681015460000b60001914611d0e5760405162461bcd60e51b81526004016105db90612d38565b600381015460ff861610611d585760405162461bcd60e51b8152602060048201526011602482015270125b9d985b1a59081bdc1d1a5bdb881251607a1b60448201526064016105db565b60008683604051602001611d6d929190612a9e565b60408051601f19818403018152828252805160209182012060c0840183526001600160401b03808c1685526001600160a01b0380891686850190815260ff808e16888801908152606089018d815242861660808b01908152600060a08c018181528982526004909a52998a209a518b5495519351909416600160e01b0260ff60e01b1993909616600160401b9081026001600160e01b03199096169488169490941794909417919091169390931788559151600188015551600290960180549451151590910268ffffffffffffffffff199094169590911694909417919091179092556005840180549293508692909190611e69908490612d03565b925050819055508360016000828254611e829190612d03565b90915550506040805160ff88168152602081018690526001600160a01b038516916001600160401b038a16917fdf8a6f8692de6e1ec9ec01329254aa49c4d6f036e50b04bac1af46436f57964a910160405180910390a35060019695505050505050565b611eee6121cb565b6000826001600160401b0316118015611f1d57506000546001600160401b03600160a01b909104811690831611155b611f395760405162461bcd60e51b81526004016105db90612a70565b6001600160401b0382811660009081526003602090815260409182902082516101408101845281549485168152600160401b9094046001600160a01b0316918401919091526001810180549192840191611f9290612b63565b80601f0160208091040260200160405190810160405280929190818152602001828054611fbe90612b63565b801561200b5780601f10611fe05761010080835404028352916020019161200b565b820191906000526020600020905b815481529060010190602001808311611fee57829003601f168201915b5050505050815260200160028201805461202490612b63565b80601f016020809104026020016040519081016040528092919081815260200182805461205090612b63565b801561209d5780601f106120725761010080835404028352916020019161209d565b820191906000526020600020905b81548152906001019060200180831161208057829003601f168201915b5050505050815260200160038201805480602002602001604051908101604052809291908181526020016000905b828210156121775783829060005260206000200180546120ea90612b63565b80601f016020809104026020016040519081016040528092919081815260200182805461211690612b63565b80156121635780601f1061213857610100808354040283529160200191612163565b820191906000526020600020905b81548152906001019060200180831161214657829003601f168201915b5050505050815260200190600101906120cb565b505050908252506004820154602082015260058201546040820152600690910154600081900b60608301526001600160401b03610100820481166080840152600160481b9091041660a09091015292915050565b60405180610140016040528060006001600160401b0316815260200160006001600160a01b0316815260200160608152602001606081526020016060815260200160008152602001600081526020016000800b815260200160006001600160401b0316815260200160006001600160401b031681525090565b82805482825590600052602060002090810192821561228a579160200282015b8281111561228a578251829061227a9082612c44565b5091602001919060010190612264565b5061229692915061229a565b5090565b808211156122965760006122ae82826122b7565b5060010161229a565b5080546122c390612b63565b6000825580601f106122d3575050565b601f0160209004906000526020600020908101906122f191906122f4565b50565b5b8082111561229657600081556001016122f5565b80356001600160401b038116811461232057600080fd5b919050565b60006020828403121561233757600080fd5b61234082612309565b9392505050565b80356001600160a01b038116811461232057600080fd5b6000806040838503121561237157600080fd5b61237a83612309565b915061238860208401612347565b90509250929050565b600080604083850312156123a457600080fd5b6123ad83612309565b915061238860208401612309565b60005b838110156123d65781810151838201526020016123be565b50506000910152565b600081518084526123f78160208601602086016123bb565b601f01601f19169290920160200192915050565b600082825180855260208086019550808260051b84010181860160005b8481101561245657601f198684030189526124448383516123df565b98840198925090830190600101612428565b5090979650505050505050565b80516001600160401b031682526000610140602083015161248f60208601826001600160a01b03169052565b5060408301518160408601526124a7828601826123df565b915050606083015184820360608601526124c182826123df565b915050608083015184820360808601526124db828261240b565b91505060a083015160a085015260c083015160c085015260e083015161250660e086018260000b9052565b50610100838101516001600160401b038116868301525050610120838101516001600160401b038116868301525b5090949350505050565b6000602080830181845280855180835260408601915060408160051b870101925083870160005b8281101561259357603f19888603018452612581858351612463565b94509285019290850190600101612565565b5092979650505050505050565b634e487b7160e01b600052604160045260246000fd5b604051601f8201601f191681016001600160401b03811182821017156125de576125de6125a0565b604052919050565b600082601f8301126125f757600080fd5b81356001600160401b03811115612610576126106125a0565b612623601f8201601f19166020016125b6565b81815284602083860101111561263857600080fd5b816020850160208301376000918101602001919091529392505050565b60006020828403121561266757600080fd5b81356001600160401b0381111561267d57600080fd5b612689848285016125e6565b949350505050565b602081526001600160401b038251166020820152600060208301516126c160408401826001600160a01b03169052565b50604083015160ff81166060840152506060830151608083015260808301516101008060a08501526126f76101208501836123df565b915060a0850151601f198584030160c086015261271483826123df565b92505060c085015161273160e08601826001600160401b03169052565b5060e085015180151585830152612534565b60008060006060848603121561275857600080fd5b83356001600160401b038082111561276f57600080fd5b61277b878388016125e6565b945060209150818601358181111561279257600080fd5b61279e888289016125e6565b9450506040860135818111156127b357600080fd5b8601601f810188136127c457600080fd5b8035828111156127d6576127d66125a0565b8060051b6127e58582016125b6565b918252828101850191858101908b8411156127ff57600080fd5b86850192505b8383101561283b5782358681111561281d5760008081fd5b61282b8d89838901016125e6565b8352509186019190860190612805565b809750505050505050509250925092565b803560ff8116811461232057600080fd5b60008060006060848603121561287257600080fd5b83356001600160401b0381111561288857600080fd5b612894868287016125e6565b9350506128a360208501612309565b91506128b16040850161284c565b90509250925092565b60208152600061234060208301846123df565b6001600160401b038a811682526001600160a01b038a166020830152610120604083018190526000916129028483018c6123df565b91508382036060850152612916828b6123df565b608085019990995260a0840197909752505060009390930b60c084015290831660e083015290911661010090910152949350505050565b6001600160401b0389811682526001600160a01b038916602083015260ff881660408301526060820187905261010060808301819052600091612992848301896123df565b915083820360a08501526129a682886123df565b951660c0840152505090151560e0909101529695505050505050565b6000602082840312156129d457600080fd5b61234082612347565b600080604083850312156129f057600080fd5b6129f983612309565b915060208301358060000b8114612a0f57600080fd5b809150509250929050565b600060208284031215612a2c57600080fd5b5035919050565b60008060408385031215612a4657600080fd5b612a4f83612309565b91506123886020840161284c565b6020815260006123406020830184612463565b602080825260149082015273141c99591a58dd1a5bdb881b9bdd08199bdd5b9960621b604082015260600190565b60c09290921b6001600160c01b031916825260601b6bffffffffffffffffffffffff19166008820152601c0190565b634e487b7160e01b600052601160045260246000fd5b80820281158282048414176109aa576109aa612acd565b600082612b1757634e487b7160e01b600052601260045260246000fd5b500490565b6001600160401b03818116838216019080821115612b3c57612b3c612acd565b5092915050565b6001600160401b03828116828216039080821115612b3c57612b3c612acd565b600181811c90821680612b7757607f821691505b602082108103612b9757634e487b7160e01b600052602260045260246000fd5b50919050565b634e487b7160e01b600052603260045260246000fd5b60006001600160401b03808316818103612bcf57612bcf612acd565b6001019392505050565b60008251612beb8184602087016123bb565b9190910192915050565b601f821115612c3f57600081815260208120601f850160051c81016020861015612c1c5750805b601f850160051c820191505b81811015612c3b57828155600101612c28565b5050505b505050565b81516001600160401b03811115612c5d57612c5d6125a0565b612c7181612c6b8454612b63565b84612bf5565b602080601f831160018114612ca65760008415612c8e5750858301515b600019600386901b1c1916600185901b178555612c3b565b600085815260208120601f198616915b82811015612cd557888601518255948401946001909101908401612cb6565b5085821015612cf35787850151600019600388901b60f8161c191681555b5050505050600190811b01905550565b808201808211156109aa576109aa612acd565b604081526000612d2960408301856123df565b90508260208301529392505050565b6020808252601b908201527f50726564696374696f6e20616c7265616479207265736f6c7665640000000000604082015260600190565b60ff85168152836020820152608060408201526000612d9160808301856123df565b8281036060840152612da381856123df565b97965050505050505056fea2646970667358221220f55aef80c00154b226cb7361bf79b509cadc27f010d015b8132130836ea6c24b64736f6c63430008130033",
  "linkReferences": {},
  "deployedLinkReferences": {}
}